:020000041FFFDC
:1000000000020020D500FF1FDD00FF1FDF00FF1FE3
:1000100000000000000000000000000000000000E0
:10002000000000000000000000000000E100FF1FD1
:100030000000000000000000E300FF1FE500FF1FBC
:10004000E700FF1FE700FF1FE700FF1FE700FF1F9C
:10005000E700FF1FE700FF1FE700FF1FE700FF1F8C
:1000600000000000E700FF1FE700FF1F0000000086
:10007000E700FF1FE700FF1FE700FF1F0000000071
:10008000E700FF1FE700FF1F00000000E700FF1F61
:1000900000000000E700FF1FE700FF1FE700FF1F51
:1000A00000000000E700FF1FE700FF1FE700FF1F41
:1000B000E700FF1F00000000E700FF1F0000000036
:1000C0000348854600F014F800480047710CFF1FF4
:1000D000000200200448804704480047FEE7FEE78E
:1000E000FEE7FEE7FEE7FEE7A908FF1FC100FF1FCE
:1000F000064C0125064E05E0E36807CC2B430C3C7B
:1001000098471034B442F7D3FFF7DEFFCC0BFF1F44
:10011000DC0BFF1FFEB500F0E7FB5848416B0122E6
:1001200011434163052000070168554A11400160F1
:10013000544909690A0703D4C26840231A43C260BC
:100140004A0504D4C26801231B051A43C26009048E
:1001500004D4C168012292071143C16004690821D7
:1001600006690C40CA01056916400B031D400520B5
:1001700027460007009601950469082106690C408E
:10018000C90105690E404801054000F0C1FB002F80
:1001900001D0002C45D00098002801D0002E4ED070
:1001A00001980028E3D0002DE1D105203649000751
:1001B0000160016881430160416A11221206114306
:1001C00041622E48403001680122920311430160D0
:1001D0002E48C168052292021143C160D02181607E
:1001E0004269032149038A4381140A434261C26878
:1001F00043141A43C26002685205FCD50268120516
:1002000006D48268224B9A4202D88268182A22D2E7
:10021000BFF34F8F20491F48C860BFF34F8F00BF07
:10022000FDE705201849000701600168502291434D
:100230000160016A1122120211430162C1E7052027
:100240001149000701600168821291430160416A0F
:10025000FF221132B3E772B602680A4302604269B4
:100260008A4342610168602291430160C1680C22A7
:100270001143C160792000F02DFBFEBD001002404B
:100280003FFFCF3F800DFF1FFFFFFFEB0038014016
:100290003A5500000400FA0500ED00E0F8B501252C
:1002A00000F00AFB064600F007FB01467140FF29FB
:1002B00001D01F20D3E06B4C442E20D010DC032E45
:1002C00021D006DC002E1ED0012E1CD0022E1DD106
:1002D00019E0112E13D0212E11D0312E16D10EE09F
:1002E000922E10D006DC632E09D0732E07D0822EFA
:1002F0000CD104E0F12E06D0F22E07D103E0206AE3
:10030000C0B2AA28D5D1792000F0E4FA732E0BD020
:1003100006DC312E08D0442E06D0632E0ED103E029
:10032000822E01D0922E09D12069C003C1D4606908
:10033000002803DA4C48A0604C48A060312E5ED003
:100340000EDC032E49D006DC002E24D0012E32D044
:10035000022E15D137E0112E4BD0212E10D14BE0BB
:1003600000221F234249732E53D004DC442E4AD06E
:10037000632E05D14AE03F48822E54D0922E56D0AB
:100380000025732E62D05DDC312E5FD0442E5DD00F
:10039000632E60D15AE00E2000F09CFA102000F08D
:1003A00099FA00273448C05D00F094FA7F1CFFB230
:1003B0000E2FF7D3E5E7102000F08CFA002000F0B4
:1003C00089FA002006E0012000F084FA042000F001
:1003D00081FA402000F07EFAD3E7012000F07AFA9B
:1003E000264F38680005000F00F074FA3868C0B274
:1003F000F0E700F0DFF9F8BD00F022F901E000F0CD
:1004000009FB0546BDE700F03BF8FAE700F0F8FB12
:10041000F7E70B704A70FF200871487115480722F2
:100420001349001D0BE055220A70002206E0AA25A0
:100430000D70B0254D700B714A7107220C4900F008
:1004400031FBDEE7822E01D0922E04D160690121BA
:10045000C90708436061002D00D12AE7792000F028
:1004600039FAF8BD0020024023016745AB89EFCD82
:1004700000000020800EFF1FBE0BFF1F0058014030
:10048000FEB500F019FA054600F016FA04462846B3
:1004900060400090FF2D04D000276600B01C019042
:1004A0000FE000F009FA009988422CD100F006F91B
:1004B000FEBD00F001FA01461A48C1557F1C0198A3
:1004C000FFB2B842F5D8B11C1648009A00F0ACF85B
:1004D000064600F0F1F9B04215D100201149621C26
:1004E00009E04300CF5C5E18BC467778CF5467467E
:1004F000401C7770C0B29042F3D3002D05D0102D70
:1005000005D0202D09D00020FEBD082200E00122E8
:100510002146044800F000F9FEBD2146014800F0E4
:1005200095F9FEBD0000002070B5044600F0C4F946
:10053000334D287000F0C0F9687000F0BDF9A87064
:1005400000F0BAF9E87000F0B7F90646002204217D
:10055000284600F069F8864250D1792000F0BAF9B7
:100560002978E878090640186978AA7809041202FF
:1005700089184018234B2449C21A206098423BD066
:1005800005DC224A80180CD026280CD134E0082A39
:1005900002D0202A07D101E0216004E01A4880300F
:1005A00000E01B4820601B4A0125107FED06400734
:1005B000194B000CC3182068A84203D3984201D2FB
:1005C000012070BD154B127F154C9206920FD2027E
:1005D0001219984203D3904201D2022070BD114AF1
:1005E000904203D3884201D2052070BD094A2032CF
:1005F000884203D3904201D2032070BD002070BD19
:1006000000000020E0F7FF1F000EFF1F5A0800E067
:10061000FC0BFF1FE00FFF1F00200008000200205E
:10062000000800200000FF1F02E003785A40401C31
:100630000B46491E89B2002BF7D1104670470000C7
:1006400008B56846FFF770FF012803D0022801D0E3
:10065000002008BD154800214163144A4032116052
:10066000134AD16091600522124B12071360116288
:1006700051624168072252039143012252038918B3
:10068000416041680C4A490B52684903D204D20CBC
:100690001143416001684905FCD562B600990868BC
:1006A00080F3088848688047012008BD0010024098
:1006B00000380140FFFFFFEB000FFF1F1349C86A1E
:1006C000134A904207D1486A4A6AC006C00ED20453
:1006D000D20E904201D80020704748690D4A10435D
:1006E00048610020C043520610600869C003FCD472
:1006F00008690A69C007C00F01231A430A614A69E1
:10070000044BDB431A404A6170470000002002405E
:10071000FFFF000004000001F7B5234B17465A699C
:1007200082B00120214C22435A6100254E1C31E049
:10073000012831D100246900009127E000F0E8F899
:1007400002990098085A78430019C1010120C00697
:1007500008181749097F4907490F491C4A031F21F7
:10076000C90641188A4201D801200DE00021C94381
:1007700001600D490869C003FCD40869C00707D0AF
:100780000A69012002430A61641CE4B2BC42D5D369
:100790006D1CEDB2B542CBD303494A69034BDB4331
:1007A0001A404A6105B0F0BD00200240020000017D
:1007B000E00FFF1F38B56846FFF7B6FE00280AD0E5
:1007C00000F07AF81E4C207000F076F8217848404E
:1007D000FF2801D0002038BD792000F07BF81949AE
:1007E0000098401803D0142801D0002522E01648B4
:1007F000017F4907490F491CC90061700021A170A0
:10080000007F0D468006800F401C4000E070217183
:1008100005E06019407800F05DF86D1CADB22078FD
:10082000401CA842F5D809E00098405D00F052F85D
:100830006D1CADB22078401CA842F5D8012038BD0F
:1008400000000020340800E0E00FFF1FF3B5144C57
:1008500081B06269134B1A43626100256F1E4E1C02
:1008600015E000F055F801986900405A0103012095
:10087000C006081807602069C003FCD42069C007BF
:1008800007D021690120014321616D1CEDB2B54201
:10089000E7D36169034AD24311406161FEBD0000A4
:1008A000002002400008000101200249C0068860C3
:1008B0007047000000ED00E010B5054C01E000F0CD
:1008C00027F820688006FAD56068C0B210BD000025
:1008D0000038014003490A68486008684006FCD5B2
:1008E00070470000003801400548006AC00406D483
:1008F000054804490160072141600449816070474F
:10090000002002405555000000300040FF0F00005D
:10091000044801687F2211430160044902480860CD
:1009200070470000002C0040AAAA000000300040E0
:10093000F0B5521C034644061CD0D8095E06C0011F
:100940000024760EB518AE460AE0171B75467F18D0
:100950002D1B203F6D18203DFF7F641CEF77A4B254
:100960009442F2D3002403E0055D0D55641CA4B24B
:10097000A642F9D81C461443640611D09C187E3454
:10098000E4095B06E4015B0E9A18641E231A5B1CE3
:1009900003E0845C8C54521C92B29342F9D89AB210
:1009A0001A4D6B691A4C23436B6100231C46D20914
:1009B0001FE00025CE58C6501B1D1E2D06D1134E1C
:1009C00076690127FF043E43104F7E616D1CADB276
:1009D000202DEFD30D4F3D69ED03FCD43D69ED07AC
:1009E00011D00125AC463D69012635433D61641CAB
:1009F000A4B2A242DDD805484169054AD24311405C
:100A000041616046F0BD00208446F4E700200240CA
:100A100001000001FEB56846FFF786FD0746012884
:100A200003D0022F01D0032F17D1FFF745FF002677
:100A30000446451C05E0FFF73FFF19498855761C21
:100A4000B6B2AE42F7D3FFF737FF06462246611C27
:100A50001348FFF7E9FD864201D00020FEBD012FBB
:100A600005D0022F09D0032F14D00198FEBD2246D5
:100A70000B490098FFF75CFF0AE000200849009A44
:100A800003E00B5C1354401C80B2A842F9D3012050
:100A90000190FEBD22460249009800F003F8F7E7F6
:100AA00000000020F8B586463948046A456AC66ADF
:100AB0004069400004D53648364BC360364BC360AE
:100AC0000023521C3BE07046C7183448874203D1CC
:100AD000200ACC5C000204433048401C874206D107
:100AE000FF20000284432046CC5C240204432B48B0
:100AF000001D874203D1280ACD5C00020543274828
:100B0000401D874206D1FF20000285432846CD5C68
:100B10002D02054321480C30874203D1300ACE5CB8
:100B2000000206431D480D30874206D13046FF279C
:100B30003F02CE5CB843360206435B1C9BB2934235
:100B4000C1D3134F3C627D62FE627969812040040B
:100B5000014379610E4AFF21803211603969C9036E
:100B6000FCD43969CC073969E40F0122114339619A
:100B7000796981437961002C07D07920FFF7AAFEBB
:100B800078690121C906084378612046F8BD000054
:100B9000002002403B2A19087F6E5D4C800EFF1F2B
:100BA00002E008C8121F08C1002AFAD17047704736
:100BB000002001E001C1121F002AFBD17047000193
:100BC00002112131446373829203F1F20C0DFF1F75
:100BD0000000002000020000B00BFF1F000000001A
:100BE0000000000000000000000000000000000005
:100BF00000000000000000000000000010000000E5
:100C0000F8B5184FFFF758FE00260446451C05E0CE
:100C1000FFF752FE14498855761CB6B2AE42F7D3A0
:100C2000FFF74AFE06462246611C0F48FFF7FCFC10
:100C3000864201D00020F8BD00200B49012205E0CA
:100C40000C5C1346A3409F43401C80B2A842F7D3DC
:100C50000F70380A4870012203490448FFF722FF49
:100C6000F8BD0000FFFF0000000000208C0EFF1FF9
:100C700020484168204A090C12690904D204D20CA8
:100C800011430122D2031143416001684905FCD59B
:100C90001B4A1A4890601B48906017484030C16A50
:100CA000CBB219490B60C36ADB01DB0D4B60C36A31
:100CB0001B041B0E0B61036BDBB28B60036B5B01D0
:100CC0005B0DCB60436BDB03DB0B4B61836BDB03A7
:100CD000DB0B8B61C36B9BB2CB61C06B8000800C64
:100CE00008625069C90508435061FFF713FAFFF71E
:100CF000D5FAFCE700100240000FFF1F23016745F3
:100D000000200240AB89EFCD00210240FFFFFFFF32
:100D1000FFFFFFFFFFFFFFFFFFFFFFFFFFFFFFFFE3
:100D2000FFFFFFFFFFFFFFFFFFFFFFFFFFFFFFFFD3
:100D3000FFFFFFFFFFFFFFFFFFFFFFFFFFFFFFFFC3
:100D4000FFFFFFFFFFFFFFFFFFFFFFFFFFFFFFFFB3
:100D5000FFFFFFFFFFFFFFFFFFFFFFFFFFFFFFFFA3
:100D6000FFFFFFFFFFFFFFFFFFFFFFFFFFFFFFFF93
:100D7000FFFFFFFFFFFFFFFFFFFFFFFFFFFFFFFF83
:100D800032335950303330465538324B30303036AC
:100D9000FFFFFF010000000000001F000000000036
:100DA0005987100100190119FFFFFF01FFFFFFFF25
:100DB000FFFFFFFFFFFFFFFFFFFFFFFFFFFFFFFF43
:100DC000FFFFFFFFFFFFFFFFFFFFFFFFFFFFFFFF33
:100DD000FFFFFFFFFFFFFFFFFFFFFFFFFFFFFFFF23
:100DE000FFFFFFFFFFFFFFFFFFFFFFFFFFFFFFFF13
:100DF000FFFFFFFFFFFFFFFFFFFFFFFFFFFFFFFF03
:100E000056345041193833354C97AA007828044796
:100E1000FFFF0002BA78BA65FFFFFF9AFFFFFF0AE3
:100E20006AEE9511FFFFFFFFFFFFFFFFFFFFFFFFD0
:100E3000FFFFFFFFFFFFFFFFFFFFFFFFFFFFFFFFC2
:100E4000F2120000F2320000EB52000009730000C1
:100E500003930000B503000075040000FFFFFFFFCF
:100E6000FFFFFFFFFFFFFFFFFFFFFFFFFFFFFFFF92
:100E7000FFFFFFFFFFFFFFFFFFFFFFFFFFFFFFFF82
:100E8000AABE5541FF0000FFFFFFFFFFFFFF00006C
:100E9000FFFFFFFFFFFFFFFFFFFFFFFFFFFFFFFF62
:100EA000FFFFFFFFFFFFFFFFFFFFFFFFFFFFFFFF52
:100EB000FFFFFFFFFFFFFFFFFFFFFFFFFFFFFFFF42
:100EC000FFFFFFFFFFFFFFFFFFFFFFFFFFFFFFFF32
:100ED000FFFFFFFFFFFFFFFFFFFFFFFFFFFFFFFF22
:100EE000FFFFFFFFFFFFFFFFFFFFFFFFFFFFFFFF12
:100EF000FFFFFFFFFFFFFFFFFFFFFFFFFFFFFFFF02
:100F0000FA120000FA320000F452000014730000DC
:100F10000E930000B5030000750400001E1E48007B
:100F20001E002001B0360000B0360000A00F2003E4
:100F30003C3C90003C004002606D0000606D000091
:100F4000401F40067878200178008004C0DA000055
:100F5000C0DA0000803E800CA6A68F01A6003906EC
:100F60006C2E01006C2E010068564811B4B4B0011B
:100F7000B400C0062048010020480100C05DC01236
:100F800055AAAA55AA5555AA55AAAA55AA5555AA69
:100F90000100FEFF0038FFC7FFFFFFFFFFFFFFFF5D
:100FA000EC3213CDEE0011FFFFFFFFFFFFFFFFFF4D
:100FB000FFFFFFFFFFFFFFFFC4083BF7F0070FF83D
:100FC00090006FFF0000FFFFC0033FFC84007BFF29
:100FD0000000FFFFFFFFFFFFFFFFFFFFFFFFFFFF1F
:100FE000FFFFFFFFFFFFFFFFFFFFFFFFFFFFFFFF11
:100FF000FFFFFFFFFFFFFFFF001000603700C8FF8B
:00000001FF
